:020000040800F2
:10000000006000209B1100087D110008811100088C
:100010007D1100087D1100087D1100087D11000888
:100020007D1100087D1100087D1100087D11000878
:100030007D1100087D1100087D1100087D11000868
:100040007D1100087D1100087D1100087D11000858
:100050007D1100087D1100087D1100087D11000848
:100060007D1100087D1100087D1100087D11000838
:100070007D1100087D1100087D1100087D11000828
:100080007D1100087D1100087D1100087D11000818
:100090007D1100087D1100087D1100087D11000808
:1000A0007D1100087D1100087D1100087D110008F8
:1000B0007D1100087D1100087D1100087D110008E8
:1000C0007D1100087D1100087D1100087D110008D8
:1000D0007D1100087D1100087D1100087D110008C8
:1000E0007D1100087D1100087D1100087D110008B8
:1000F0007D1100087D1100080000000000000000D4
:1001000000000000000000007D1100087D110008C3
:1001100000000000000000007D1100087D110008B3
:100120007D1100087D110008650200087D1100089E
:100130007D1100087D1100087D1100087D11000867
:100140007D11000800000000000000000000000019
:10015000000000000000000000000000000000009F
:1001600000000000000000007D110008A10F000841
:100170007D110008000000007D1100080000000053
:100180007D1100080D4B1A68B2B110B419469B8856
:100190000B4C24F81300013A0A608A6801328A6025
:1001A00001339BB28B80B3F5005F02D05DF8044B46
:1001B000704700228A80F9E7704700BF00000020E6
:1001C0001000002030B400239C4605E00CF1010C27
:1001D0005FFA8CFC0133DBB21E2B1DD8154A9468E4
:1001E000D4B111469289144D35F8125040F8045B91
:1001F000013C8C600C6801340C60013292B28A813F
:10020000B2F5005FE2D10A4600219181DEE70022CB
:1002100040F8042B0133DBB21E2BF8D9054BDB89E8
:100220005B019BB20CF01F0C43EA0C03036030BC73
:10023000704700BF0000002010000020024AD38950
:100240000133D381704700BF00000020044B00221F
:10025000DA819A809A814FF4005119609A60704750
:100260000000002038B5184B1B6813F4007F12D033
:10027000154A536843F400735360144C134BD3F87E
:100280008030F3B9124A536823F4800353600E4B55
:1002900000221A6338BD0C4A536843F480635360EC
:1002A0000C4CEBE734F8020BFFF76CFF0135EDB2B5
:1002B0001F2DF7D9054AD2F88030203BC2F8803094
:1002C000E8E70025F4E700BF0004024010400020EA
:1002D000006001405040002020F01F000D49C1F88F
:1002E00080000D4B5A6842F4C0625A600B4A9A6310
:1002F000D96340225A6340F2A7521A63084A5368EE
:1003000043F440035360034BD3F88030002BFAD101
:10031000704700BF104000200004024064600140AC
:1003200000600140254B5A6942F4001242F002027B
:100330005A61DA6942F08052DA6121490A6842F46E
:1003400000720A609A6942F0807242F001029A617A
:100350001C4A136843F4702313601B4A536843F02C
:1003600001035360184B9B6813F4004FFAD1164AEF
:10037000136843F000431360134B9B68002BFBDAB8
:10038000114B1A6842F400321A605A6842F08472C3
:100390005A601A6822F000421A605A6842F010024D
:1003A0005A60094B9B6813F4805FFAD1074B002217
:1003B00083F83A234FF080625A6070470010024081
:1003C00000700040001000480060014000E100E0C3
:1003D000092802D83030C0B270473730C0B27047F9
:1003E000034B1B889BB213B9014B5880998070470F
:1003F00094400020034B1B889BB213B9014B9871AA
:10040000D971704794400020034B1B889BB20BB9F5
:10041000014B9860704700BF94400020054B1B883B
:100420009BB203B1704710B50446FFF70FFF014BB5
:100430001C8010BD94400020084B00225A624000EE
:10044000D86209221A60054B1B6813F0010FFAD11C
:10045000024A136923F00103136170470010004042
:1004600008B5224BDA6942F01002DA615A6942F4A7
:1004700000325A614FF09042136843F0500313600A
:100480001B4B48F69F429A62C820FFF7D5FFFFF743
:10049000DDFEFFF747FF00F039FE164B1B889BB2CD
:1004A000002BFAD04FF090450823AB61114C6088C7
:1004B000FFF7C2FF4FF40023AB61A079FFF7BCFF49
:1004C0000423AB61E079FFF7B7FFA068FFF704FFF3
:1004D0004FF48023AB61A088FFF7AEFF23889BB267
:1004E000013B9BB22380FFF7A9FED6E70010024034
:1004F0000010004094400020084A538843F08000D8
:100500000749A1F84C00003B18BF012392F848109E
:1005100063F3871182F84810704700BFA0400020A5
:10052000005C004008BB10B5104BD3F8043C13F43A
:10053000804F18D00E4C206800F1005000F540505C
:100540004000FFF73FFE40236360084AD2F8043CB6
:1005500023F4E04323F070031B041B0C43F480439B
:10056000C2F8043C10BD034CE5E770470050004062
:10057000186000401060004000BF044B93F8483002
:100580009B0914BF01200020704700BFA04000203D
:1005900070B506460D4600240EE0A00026FA00F0D5
:1005A00000F00F00FFF714FF2B4603F8020B0022A8
:1005B0006A700134E4B21D46072CEED970BD00F01C
:1005C00007039B0003F1804303F5B8431A6802F464
:1005D000C062B2F5806F49D010F0800F10D11A6858
:1005E00012F4405F42D0002932D01A6882F480525F
:1005F00022F4804222F070021204120C1A6070473A
:100600001A6812F0300F31D051B11A6882F010021E
:1006100022F4E04222F040021204120C1A607047E9
:100620001A6802F4E062B2F5807F08D01A6882F09E
:10063000200222F4E0421204120C1A6070471A6879
:1006400082F0300222F440521204120C1A607047F9
:100650001A6802F4E062B2F5807F08D01A6882F46A
:10066000405222F070021204120C1A6070471A688D
:1006700082F4415222F030021204120C1A607047C8
:1006800000F00700024B03EB8003D964704700BF02
:10069000A0400020136803F1005C0CF5405C4FEAB9
:1006A0004C0C5160002213468A421BD210B507E061
:1006B0004CF8042B002201339BB201308B4210D244
:1006C00090F800E0DC0004F008040EFA04FE42EAB0
:1006D0000E0292B213F0010FEAD15C1C8C42EAD1F7
:1006E000E6E710BD704700B584461046136803F175
:1006F000005303F540535A004368C3F3090399427A
:1007000028BF194608464FF0000E734609E052F81C
:10071000041B1FFA81FE8CF8001001339BB20CF110
:10072000010C834207D213F0010FF0D04FEA1E21D3
:100730008CF80010F1E75DF804FB38B584460846F4
:1007400015460CF00702940004F1804404F5B84407
:10075000236803F4E663B3F5087F2FD01DD8202B60
:100760002CD0B3F5907F15D1236813F4804F3BD084
:100770001301274A1A442946FFF78CFF236823F404
:10078000E04323F070031B041B0C43F480432360FD
:1007900028B238BD4FF0FF30FBE7B3F5866F0AD1C2
:1007A000236813F0400F29D11301194A1A4429462E
:1007B000FFF770FFECE7B3F5C46F12D1120102F13D
:1007C000804202F5C0422946FFF764FF236883F0A8
:1007D000300323F4E04323F040031B041B0C23608D
:1007E000D6E74FF0FF30D4E74FEA0C1202F1804217
:1007F00002F5C0422946FFF74DFFBFE74FEA0C1252
:1008000002F1804202F5C0422946FFF743FFBFE7ED
:100810000860004010B58E46114600F0070C4FEA04
:100820008C0404F1804404F5B844236803F45C5359
:10083000B3F5445F32D01ED8B3F5085F02D0B3F5EC
:10084000185F12D14FEA0C1C2F4A62447046FFF722
:100850004AFF236883F4405323F4804323F070035A
:100860001B041B0C236000B204E0B3F5005FE9D069
:100870004FF0FF3010BDB3F5505F0CD1236813F477
:10088000804F35D04FEA0C1C1F4A62447046FFF778
:100890002AFF00B2EEE74FF0FF30EBE7236844F2A7
:1008A000400213400ED093420CD0236813F0400F47
:1008B00013D04FEA0C1C144A62447046FFF713FF32
:1008C00000B2D7E7236823F4E04323F070031B044E
:1008D0001B0C43F040032360E7E74FEA0C1202F1E0
:1008E000804202F5C0427046FFF7FDFE00B2C1E74C
:1008F0004FEA0C1202F1804202F5C0427046FFF747
:10090000F2FE00B2B6E700BF0860004000224FF4DC
:10091000007C07E01B681BB1634501D21FFA83FC12
:100920000132D2B2072A0CD8130103F1804303F538
:10093000C04399680029EDD06145EBD21FFA81FCD4
:10094000E8E7ACEB000080B270472DE9F04100F021
:1009500007050F4600295AD1AB0003F1804303F588
:10096000B84345F400711960541CA4B224F001048A
:10097000A4B246B2002E00DBE7B92046FFF7C6FF5F
:100980004FEA051808F1804808F5C048C8F800008B
:100990000023C8F80430062F56D0AB0003F1804383
:1009A00003F5B8431A6882F0200222F4E0421204F0
:1009B000120C1A60002E28DB3E2C5BD904F11F03B9
:1009C0009BB223F01F039CB25B012A0102F180421B
:1009D00002F5C04203F5F843D3602046FFF796FFC7
:1009E0002E0106F1804606F5C046B060062F49D0BC
:1009F000AB0003F1804303F5B8431A6882F4405218
:100A000022F070021204120C1A60BDE8F081022973
:100A10000AD006290FD0AB0003F1804303F5B84399
:100A200045F4C06119609FE7AB0003F1804303F513
:100A3000B8431D6098E7AB0003F1804303F5B8436A
:100A400045F4807119608FE72046FFF75FFFC8F813
:100A500008000023C8F80C30AB0003F1804303F515
:100A6000B8431A6882F0300222F440521204120C89
:100A70001A609FE72B0103F1804303F5C043620234
:100A8000DA60AAE72046FFF741FF3060F368736041
:100A9000AB0003F1804303F5B8431A6882F4415276
:100AA00022F030021204120C1A60AEE700F00700C8
:100AB000830003F1804303F5B8431A6822F40F4220
:100AC00022F08F021A60000100F1804000F5C04062
:100AD00000238360C36003604360704770B5974B29
:100AE0001C7814F0630440F0B2805B783BB1053BA6
:100AF000042B09D8DFE803F01217080A6C008F4BAB
:100B000000221A725A720124204670BD8B4A92F854
:100B10004830C3F3020313720124F5E7874B884A78
:100B2000DA660124F0E7854B5B881A0A032A0BD0AA
:100B3000012A45D0022AE7D1804B824A1A6719223E
:100B400083F874200124DFE713F0FF0320D0012B8A
:100B500026D0022B2CD0032BD6D1784C32262672ED
:100B60006372794D04F10A01D5F8AC07FFF710FD67
:100B700004F11A01D5F8B007FFF70AFD04F12A01C4
:100B8000D5F8B407FFF704FD84F874600124BBE7CF
:100B90006A4B6E4A1A67042283F874200124B3E773
:100BA000664B6B4A1A670C2283F874200124ABE76A
:100BB000624B684A1A67202283F874200124A3E755
:100BC0005E4B654A1A67122283F8742001249BE762
:100BD0005A4B5B88012B21D0012404E02046FFF70B
:100BE00065FF0134E4B2072CF8D9012405E00021A7
:100BF0002046FFF745FD0134E4B2072CF7D94F4BEF
:100C000093F84820012464F3871283F84820598818
:100C1000D2B261F3020283F8482075E74022062130
:100C20008120FFF792FE4D498120FFF729FD434BBC
:100C300093F84820022161F3871283F848205988ED
:100C4000D2B261F3020283F8482001245CE7012C50
:100C500005D0022C0DD0402C49D0002454E7374B4E
:100C60005B780BB100244FE7344B00221A725A72A2
:100C70004AE7324B5C78032C04D0012C08D06CB1CD
:100C8000002441E701211879FFF799FC01243BE793
:100C900000212A4B1879FFF792FC35E7274B0022F9
:100CA0001A729B8813F0800F12D003F007039B0089
:100CB00003F1804303F5B8431B6813F0300F02D0F3
:100CC0001E4B01221A721D4B00225A7201241BE78F
:100CD00003F007039B0003F1804303F5B8431B684F
:100CE00013F4405FEFD0154B01221A72EBE7134B60
:100CF0005B78202B07D0212B0BD0222B0FD0232B5E
:100D000015D0002400E70D4B59889888FFF768FB41
:100D100011E00A4B59889888FFF76CFB0BE0074BF2
:100D200098885B8843EA0040FFF76EFB03E0034BC3
:100D30005888FFF773FB0124E6E600BFA0400020BF
:100D4000F90400080413000800F0FF1FC012000897
:100D5000C4120008D0120008F0120008250500088F
:100D600008B501210020FFF72AFC01218020FFF7B0
:100D700026FC044B93F848206FF3C50283F8482003
:100D800008BD00BFA0400020254B93F84830C3F3B6
:100D9000C203042B3AD070B52BD8063303F00703F7
:100DA000012B32D81E4C94F874603546402E28BF73
:100DB00040252A46216F0020FFF7BFFC236F2B44FC
:100DC000236794F874305B1BDBB284F87430E3B9AA
:100DD00094F8483003F03803102B01D03F2E14D87C
:100DE0000F4B93F84820042161F3C50283F8482093
:100DF0000BE0052B09D10A4B93F848206FF3C5028D
:100E000083F84820DB6E03B1984770BD044B93F81C
:100E10004820062161F3C50283F84820704700BFCF
:100E2000A040002010B5524B93F84830C3F3C203E2
:100E3000012B2BD0062B42D013B1FFF791FF10BD31
:100E400040224B490020FFF7E5FC082817D1484B0A
:100E500003F108021A67DA8883F8742093F90030E6
:100E6000002B3DDB002A3BD0402A0BD8404B93F8A7
:100E70004820012161F3C50283F84820DFE7FFF72E
:100E80006FFFDCE70020FFF76BFFD8E7384C94F8E2
:100E90007420216F0020FFF7BDFC82B294F87430FB
:100EA000934209D393421BD031491B1A81F8743005
:100EB0000B6F13440B67C2E7FFF752FFBFE7002237
:100EC00011461046FFF7A6FC294B93F848206FF314
:100ED000C50283F84820DB6E002BB0D09847AEE700
:100EE000234B03F108021A67402283F87420FFF7AE
:100EF000F5FD012804D0022831D0FFF731FF9EE72D
:100F00001B4B93F90030002B1BDA194B93F874201C
:100F1000DB889A420CD3164A82F8743092F8483033
:100F2000022161F3C50382F84830FFF72DFF86E701
:100F30000F4B93F84820032161F3C50283F8482042
:100F4000F3E7002211468020FFF7F7FB084B93F8E8
:100F50004820052161F3C50283F848206FE7044B60
:100F600093F84820052161F3C50283F8482066E71D
:100F7000A040002008B520B1022805D0FFF752FF9D
:100F800008BDFFF701FFFBE7044B93F848206FF320
:100F9000C50283F848200022DA66EFE7A04000206F
:100FA00010B5574BB3F8443013F4004F12D1544BE3
:100FB000B3F8443013F4806F63D0514AB2F8443030
:100FC0009BB223F480639BB2A2F844300024A2F8C1
:100FD000504037E04A4BB3F8442002F00702930038
:100FE00003F1804303F5B843196811F0800F10D066
:100FF000196821F4E14121F070010904090C19601C
:10100000404B03EB8203DB6C002B39D00020984768
:1010100036E0196821F070010905090D1960394998
:1010200001EB8202D26C5AB31B6813F4006F02D03A
:101030000220904724E00120FBE72046FFF736FD21
:101040000134E4B2072CF8D92E4C94F848306FF3F1
:10105000871384F84830DBB26FF3C50384F8483057
:10106000DBB26FF3020384F84830402200210846C7
:10107000FFF76BFC244BE364214B8022A3F84C2048
:1010800010BD1F4BB3F8443013F4805F11D01C4ADD
:10109000B2F840309BB223F008039BB2A2F8403074
:1010A000B2F844309BB223F480539BB2A2F8443090
:1010B000E6E7134BB3F8443013F4006F10D0104A36
:1010C000B2F840309BB243F00803A2F84030B2F8C7
:1010D00044309BB223F400639BB2A2F84430CFE7C4
:1010E000074BB3F8443013F4005FC9D0044AB2F898
:1010F00044309BB223F400539BB2A2F84430BFE7C4
:10110000005C0040A0400020750F0008164BDA6913
:1011100042F08452DA615A6942F4C0225A614FF0B7
:1011200090431A6842F020721A60104A116841F424
:1011300080611160996841F070719960596A41F459
:101140006E2159620A4B4FF43C41A3F84010202312
:101150009361084B1B67084B002283F84B234FF425
:1011600000629A60704700BF00100240000400480F
:10117000005C0040A040002000E100E000BE70479D
:1011800004207146084203D0EFF3098000F070B8E4
:10119000EFF3088000F06CB8704708B52C4B2D4970
:1011A000C91A2D4A04E012F8011B03F8011B01467D
:1011B000481E0029F7D1294B294AD21A03E0002200
:1011C00003F8012B0A46511E002AF8D1254AD2F80D
:1011D000883043F47003C2F88830234A136843F020
:1011E00012031360A2F58052136843F48033136036
:1011F0001E4B1B6813F4003FFAD01C4A536843F49B
:10120000E81343F480635360136843F08073136002
:10121000164B1B6813F0007FFAD0144A536843F052
:10122000284343F002035360D36943F08053D361F2
:101230000C4AD36823F4E0631B041B0C43F0BF6328
:1012400043F40033D36062B6FFF70AF908BD00BF6C
:1012500000000020000000201D13000800000020F6
:101260001541002000ED00E0002002400010024087
:101270008EB003680D9343680C9383680B93C36827
:101280000A93036909934369089383690793C369C0
:1012900006934FF0E023D3F8282D0592D3F82C2D98
:1012A0000492D3F8302D0392D3F83C2D0292D3F858
:1012B000382D0192D3F8343D009300BE0EB0704734
:1012C00004030A040C0343007500720072006F00EF
:1012D0002003450061007200740068002D00460084
:1012E000690065006C00640020004E004D00520053
:1012F00012010002FFFFFF40470502100002010239
:101300000301000009021900010100C000090400E6
:0D1310000001FFFFFF000705810240000003
:0400000508000000EF
:00000001FF
